{
  "contractName": "CryptoPredictionMarket",
  "abi": [
    {
      "inputs": [
        {
          "internalType": "address",
          "name": "",
          "type": "address"
        }
      ],
      "name": "balances",
      "outputs": [
        {
          "internalType": "uint256",
          "name": "",
          "type": "uint256"
        }
      ],
      "stateMutability": "view",
      "type": "function",
      "constant": true
    },
    {
      "inputs": [],
      "name": "marketCount",
      "outputs": [
        {
          "internalType": "uint256",
          "name": "",
          "type": "uint256"
        }
      ],
      "stateMutability": "view",
      "type": "function",
      "constant": true
    },
    {
      "inputs": [
        {
          "internalType": "uint256",
          "name": "",
          "type": "uint256"
        }
      ],
      "name": "markets",
      "outputs": [
        {
          "internalType": "string",
          "name": "question",
          "type": "string"
        },
        {
          "internalType": "string",
          "name": "cryptoSymbol",
          "type": "string"
        },
        {
          "internalType": "uint256",
          "name": "deadline",
          "type": "uint256"
        },
        {
          "internalType": "address",
          "name": "creator",
          "type": "address"
        },
        {
          "internalType": "bool",
          "name": "resolved",
          "type": "bool"
        }
      ],
      "stateMutability": "view",
      "type": "function",
      "constant": true
    },
    {
      "inputs": [
        {
          "internalType": "string",
          "name": "question",
          "type": "string"
        },
        {
          "internalType": "string",
          "name": "cryptoSymbol",
          "type": "string"
        },
        {
          "internalType": "uint256",
          "name": "deadline",
          "type": "uint256"
        }
      ],
      "name": "createMarket",
      "outputs": [],
      "stateMutability": "nonpayable",
      "type": "function"
    },
    {
      "inputs": [
        {
          "internalType": "uint256",
          "name": "amount",
          "type": "uint256"
        }
      ],
      "name": "addPoints",
      "outputs": [],
      "stateMutability": "nonpayable",
      "type": "function"
    },
    {
      "inputs": [
        {
          "internalType": "uint256",
          "name": "marketId",
          "type": "uint256"
        },
        {
          "internalType": "uint256",
          "name": "amount",
          "type": "uint256"
        }
      ],
      "name": "placeBet",
      "outputs": [],
      "stateMutability": "nonpayable",
      "type": "function"
    },
    {
      "inputs": [
        {
          "internalType": "uint256",
          "name": "marketId",
          "type": "uint256"
        },
        {
          "internalType": "bool",
          "name": "outcome",
          "type": "bool"
        }
      ],
      "name": "resolveMarket",
      "outputs": [],
      "stateMutability": "nonpayable",
      "type": "function"
    }
  ],
  "bytecode": "0x608060405234801561001057600080fd5b506108cb806100206000396000f3fe608060405234801561001057600080fd5b506004361061007d5760003560e01c806357bde4461161005b57806357bde446146100d3578063b1283e77146100e6578063ec9790821461010a578063f98b7783146101125761007d565b806312fb1cbd1461008257806327e235e3146100975780634afe62b5146100c0575b600080fd5b61009561009036600461063a565b610125565b005b6100aa6100a53660046105a2565b61014c565b6040516100b791906107db565b60405180910390f35b6100956100ce366004610685565b61015e565b6100956100e1366004610652565b610226565b6100f96100f436600461063a565b6102bd565b6040516100b79594939291906106f1565b6100aa61040a565b6100956101203660046105d0565b610410565b33600090815260016020526040812080548392906101449084906107e4565b909155505050565b60016020526000908152604090205481565b600082815260208190526040902060030154600160a01b900460ff16156101a05760405162461bcd60e51b8152600401610197906107a4565b60405180910390fd5b336000908152600160205260409020548111156101cf5760405162461bcd60e51b81526004016101979061073f565b33600090815260016020526040812080548392906101ee9084906107fc565b90915550506000828152602081815260408083203384526004019091528120805483929061021d9084906107e4565b90915550505050565b6000828152602081905260409020600301546001600160a01b0316331461025f5760405162461bcd60e51b81526004016101979061076d565b600082815260208190526040902060030154600160a01b900460ff16156102985760405162461bcd60e51b8152600401610197906107a4565b506000908152602081905260409020600301805460ff60a01b1916600160a01b179055565b6000602081905290815260409020805481906102d890610813565b80601f016020809104026020016040519081016040528092919081815260200182805461030490610813565b80156103515780601f1061032657610100808354040283529160200191610351565b820191906000526020600020905b81548152906001019060200180831161033457829003601f168201915b50505050509080600101805461036690610813565b80601f016020809104026020016040519081016040528092919081815260200182805461039290610813565b80156103df5780601f106103b4576101008083540402835291602001916103df565b820191906000526020600020905b8154815290600101906020018083116103c257829003601f168201915b5050505060028301546003909301549192916001600160a01b0381169150600160a01b900460ff1685565b60025481565b600280549060006104208361084e565b909155505060025460009081526020818152604090912084519091610449918391870190610488565b50825161045f9060018301906020860190610488565b506002810191909155600301805460ff60a01b196001600160a01b031990911633171690555050565b82805461049490610813565b90600052602060002090601f0160209004810192826104b657600085556104fc565b82601f106104cf57805160ff19168380011785556104fc565b828001600101855582156104fc579182015b828111156104fc5782518255916020019190600101906104e1565b5061050892915061050c565b5090565b5b80821115610508576000815560010161050d565b600082601f830112610531578081fd5b813567ffffffffffffffff8082111561054c5761054c61087f565b604051601f8301601f1916810160200182811182821017156105705761057061087f565b604052828152848301602001861015610587578384fd5b82602086016020830137918201602001929092529392505050565b6000602082840312156105b3578081fd5b81356001600160a01b03811681146105c9578182fd5b9392505050565b6000806000606084860312156105e4578182fd5b833567ffffffffffffffff808211156105fb578384fd5b61060787838801610521565b9450602086013591508082111561061c578384fd5b5061062986828701610521565b925050604084013590509250925092565b60006020828403121561064b578081fd5b5035919050565b60008060408385031215610664578182fd5b823591506020830135801515811461067a578182fd5b809150509250929050565b60008060408385031215610697578182fd5b50508035926020909101359150565b60008151808452815b818110156106cb576020818501810151868301820152016106af565b818111156106dc5782602083870101525b50601f01601f19169290920160200192915050565b600060a0825261070460a08301886106a6565b828103602084015261071681886106a6565b604084019690965250506001600160a01b03929092166060830152151560809091015292915050565b602080825260149082015273496e73756666696369656e742062616c616e636560601b604082015260600190565b60208082526018908201527f4f6e6c792063726561746f722063616e207265736f6c76650000000000000000604082015260600190565b60208082526017908201527f4d61726b657420616c7265616479207265736f6c766564000000000000000000604082015260600190565b90815260200190565b600082198211156107f7576107f7610869565b500190565b60008282101561080e5761080e610869565b500390565b60028104600182168061082757607f821691505b6020821081141561084857634e487b7160e01b600052602260045260246000fd5b50919050565b600060001982141561086257610862610869565b5060010190565b634e487b7160e01b600052601160045260246000fd5b634e487b7160e01b600052604160045260246000fdfea26469706673582212205083f93594b16869f6b95ec8f45f77c318497265fb5191e164090d1a63a5cab364736f6c63430008000033",
  "immutableReferences": {},
  "source": "// SPDX-License-Identifier: MIT\npragma solidity ^0.8.0;\n\ncontract CryptoPredictionMarket {\n    struct Market {\n        string question;\n        string cryptoSymbol;\n        uint256 deadline;\n        address creator;\n        bool resolved;\n        mapping(address => uint256) bets;\n    }\n\n    mapping(uint256 => Market) public markets;\n    mapping(address => uint256) public balances; // Mapping to store user balances\n    uint256 public marketCount;\n\n    // Function to create a new market\n    function createMarket(string memory question, string memory cryptoSymbol, uint256 deadline) public {\n        marketCount++;\n        Market storage newMarket = markets[marketCount];\n        newMarket.question = question;\n        newMarket.cryptoSymbol = cryptoSymbol;\n        newMarket.deadline = deadline;\n        newMarket.creator = msg.sender;\n        newMarket.resolved = false;\n    }\n\n    // Function to add points to a user's balance\n    function addPoints(uint256 amount) public {\n        balances[msg.sender] += amount;\n    }\n\n    // Function to place a bet on a market\n    function placeBet(uint256 marketId, uint256 amount) public {\n        require(!markets[marketId].resolved, \"Market already resolved\");\n        require(balances[msg.sender] >= amount, \"Insufficient balance\");\n\n        balances[msg.sender] -= amount;\n        markets[marketId].bets[msg.sender] += amount;\n    }\n\n    // Function to resolve a market\n    function resolveMarket(uint256 marketId, bool outcome) public {\n        require(markets[marketId].creator == msg.sender, \"Only creator can resolve\");\n        require(!markets[marketId].resolved, \"Market already resolved\");\n\n        markets[marketId].resolved = true;\n\n        // Here you could implement logic to distribute rewards based on the outcome\n        // Example: If outcome is true, distribute points to the bettors who bet on true\n        // This is a simplified version, and the full implementation would depend on your logic\n    }\n}",
  "sourcePath": "/Users/asolanki/Downloads/2024 Projects/De-AI-Prediction-Market/contracts/PredictionMarket.sol",
  "compiler": {
    "name": "solc",
    "version": "0.8.0+commit.c7dfd78e.Emscripten.clang"
  },
  "schemaVersion": "3.4.16",
  "updatedAt": "2024-08-13T18:53:43.495Z",
  "networkType": "ethereum",
  "devdoc": {
    "kind": "dev",
    "methods": {},
    "version": 1
  },
  "userdoc": {
    "kind": "user",
    "methods": {},
    "version": 1
  }
}