{
  "contractName": "CryptoPredictionMarket",
  "abi": [
    {
      "inputs": [],
      "stateMutability": "nonpayable",
      "type": "constructor"
    },
    {
      "anonymous": false,
      "inputs": [
        {
          "indexed": false,
          "internalType": "uint256",
          "name": "marketId",
          "type": "uint256"
        },
        {
          "indexed": false,
          "internalType": "string",
          "name": "question",
          "type": "string"
        },
        {
          "indexed": false,
          "internalType": "string",
          "name": "cryptoSymbol",
          "type": "string"
        },
        {
          "indexed": false,
          "internalType": "uint256",
          "name": "deadline",
          "type": "uint256"
        },
        {
          "indexed": false,
          "internalType": "address",
          "name": "creator",
          "type": "address"
        },
        {
          "indexed": false,
          "internalType": "uint256",
          "name": "betAmount",
          "type": "uint256"
        }
      ],
      "name": "MarketCreated",
      "type": "event"
    },
    {
      "inputs": [],
      "name": "marketCount",
      "outputs": [
        {
          "internalType": "uint256",
          "name": "",
          "type": "uint256"
        }
      ],
      "stateMutability": "view",
      "type": "function",
      "constant": true
    },
    {
      "inputs": [
        {
          "internalType": "uint256",
          "name": "",
          "type": "uint256"
        }
      ],
      "name": "markets",
      "outputs": [
        {
          "internalType": "string",
          "name": "question",
          "type": "string"
        },
        {
          "internalType": "string",
          "name": "cryptoSymbol",
          "type": "string"
        },
        {
          "internalType": "uint256",
          "name": "deadline",
          "type": "uint256"
        },
        {
          "internalType": "address",
          "name": "creator",
          "type": "address"
        },
        {
          "internalType": "bool",
          "name": "resolved",
          "type": "bool"
        },
        {
          "internalType": "uint256",
          "name": "betAmount",
          "type": "uint256"
        },
        {
          "internalType": "bool",
          "name": "outcome",
          "type": "bool"
        },
        {
          "internalType": "contract AggregatorV3Interface",
          "name": "priceFeed",
          "type": "address"
        }
      ],
      "stateMutability": "view",
      "type": "function",
      "constant": true
    },
    {
      "inputs": [
        {
          "internalType": "string",
          "name": "",
          "type": "string"
        }
      ],
      "name": "priceFeeds",
      "outputs": [
        {
          "internalType": "address",
          "name": "",
          "type": "address"
        }
      ],
      "stateMutability": "view",
      "type": "function",
      "constant": true
    },
    {
      "inputs": [
        {
          "internalType": "string",
          "name": "question",
          "type": "string"
        },
        {
          "internalType": "string",
          "name": "cryptoSymbol",
          "type": "string"
        },
        {
          "internalType": "uint256",
          "name": "deadline",
          "type": "uint256"
        }
      ],
      "name": "createMarket",
      "outputs": [],
      "stateMutability": "payable",
      "type": "function",
      "payable": true
    },
    {
      "inputs": [
        {
          "internalType": "uint256",
          "name": "marketId",
          "type": "uint256"
        },
        {
          "internalType": "uint256",
          "name": "targetPrice",
          "type": "uint256"
        }
      ],
      "name": "resolveMarket",
      "outputs": [],
      "stateMutability": "nonpayable",
      "type": "function"
    }
  ],
  "bytecode": "0x608060405234801561001057600080fd5b5073f4030086522a5beea4988f8ca5b36dbc97bee88c6002604051610034906100cc565b908152602001604051809103902060006101000a8154816001600160a01b0302191690836001600160a01b03160217905550735f4ec3df9cbd43714fe2740f5e3616155c5b84196002604051610089906100bd565b90815260405190819003602001902080546001600160a01b03929092166001600160a01b03199092169190911790556100db565b6208aa8960eb1b815260030190565b6242544360e81b815260030190565b610acb806100ea6000396000f3fe60806040526004361061004a5760003560e01c8063605573331461004f578063b1283e7714610071578063cb8ae86c146100ae578063ec979082146100db578063f98b7783146100fd575b600080fd5b34801561005b57600080fd5b5061006f61006a36600461077b565b610110565b005b34801561007d57600080fd5b5061009161008c366004610763565b61029e565b6040516100a5989796959493929190610847565b60405180910390f35b3480156100ba57600080fd5b506100ce6100c93660046106be565b610406565b6040516100a59190610833565b3480156100e757600080fd5b506100f061042c565b6040516100a59190610968565b61006f61010b3660046106f9565b610432565b6000828152602081905260409020600281015442101561014b5760405162461bcd60e51b81526004016101429061091d565b60405180910390fd5b6003810154600160a01b900460ff16156101775760405162461bcd60e51b8152600401610142906108e6565b600781015460408051633fabe5a360e21b815290516000926001600160a01b03169163feaf968c9160048083019260a0929190829003018186803b1580156101be57600080fd5b505afa1580156101d2573d6000803e3d6000fd5b505050506040513d601f19601f820116820180604052508101906101f6919061079c565b5091935083925061020f91508590506305f5e1006109c4565b81106102775760058301805460ff19166001179055600383015460048401546001600160a01b03909116906108fc906102499060026109c4565b6040518115909202916000818181858888f19350505050158015610271573d6000803e3d6000fd5b50610284565b60058301805460ff191690555b5050600301805460ff60a01b1916600160a01b1790555050565b6000602081905290815260409020805481906102b990610a13565b80601f01602080910402602001604051908101604052809291908181526020018280546102e590610a13565b80156103325780601f1061030757610100808354040283529160200191610332565b820191906000526020600020905b81548152906001019060200180831161031557829003601f168201915b50505050509080600101805461034790610a13565b80601f016020809104026020016040519081016040528092919081815260200182805461037390610a13565b80156103c05780601f10610395576101008083540402835291602001916103c0565b820191906000526020600020905b8154815290600101906020018083116103a357829003601f168201915b5050506002840154600385015460048601546005870154600790970154959692956001600160a01b03808416965060ff600160a01b909404841695509193909216911688565b80516020818301810180516002825292820191909301209152546001600160a01b031681565b60015481565b60006001600160a01b031660028360405161044d9190610817565b908152604051908190036020019020546001600160a01b031614156104845760405162461bcd60e51b8152600401610142906108af565b6001805490600061049483610a4e565b9091555050600154600090815260208181526040909120845190916104bd918391870190610585565b5082516104d39060018301906020860190610585565b50600280820183905560038201805434600485015560ff60a01b196001600160a01b0319909116331716905560405161050d908590610817565b908152604051908190036020018120546007830180546001600160a01b0319166001600160a01b039092169190911790556001547ff9a2e61c6954c7c1cdd45413e0488ca515bca71b77468f4de6e7fea6e556335e91610577919087908790879033903490610971565b60405180910390a150505050565b82805461059190610a13565b90600052602060002090601f0160209004810192826105b357600085556105f9565b82601f106105cc57805160ff19168380011785556105f9565b828001600101855582156105f9579182015b828111156105f95782518255916020019190600101906105de565b50610605929150610609565b5090565b5b80821115610605576000815560010161060a565b600082601f83011261062e578081fd5b813567ffffffffffffffff8082111561064957610649610a7f565b604051601f8301601f19168101602001828111828210171561066d5761066d610a7f565b604052828152848301602001861015610684578384fd5b82602086016020830137918201602001929092529392505050565b805169ffffffffffffffffffff811681146106b957600080fd5b919050565b6000602082840312156106cf578081fd5b813567ffffffffffffffff8111156106e5578182fd5b6106f18482850161061e565b949350505050565b60008060006060848603121561070d578182fd5b833567ffffffffffffffff80821115610724578384fd5b6107308783880161061e565b94506020860135915080821115610745578384fd5b506107528682870161061e565b925050604084013590509250925092565b600060208284031215610774578081fd5b5035919050565b6000806040838503121561078d578182fd5b50508035926020909101359150565b600080600080600060a086880312156107b3578081fd5b6107bc8661069f565b94506020860151935060408601519250606086015191506107df6080870161069f565b90509295509295909350565b600081518084526108038160208601602086016109e3565b601f01601f19169290920160200192915050565b600082516108298184602087016109e3565b9190910192915050565b6001600160a01b0391909116815260200190565b600061010080835261085b8184018c6107eb565b9050828103602084015261086f818b6107eb565b604084019990995250506001600160a01b039586166060820152931515608085015260a0840192909252151560c083015290911660e09091015292915050565b6020808252601a908201527f556e737570706f727465642063727970746f63757272656e6379000000000000604082015260600190565b60208082526017908201527f4d61726b657420616c7265616479207265736f6c766564000000000000000000604082015260600190565b6020808252602b908201527f4d61726b6574207265736f6c7574696f6e2074696d6520686173206e6f74206260408201526a19595b881c995858da195960aa1b606082015260800190565b90815260200190565b600087825260c0602083015261098a60c08301886107eb565b828103604084015261099c81886107eb565b606084019690965250506001600160a01b0392909216608083015260a0909101529392505050565b60008160001904831182151516156109de576109de610a69565b500290565b60005b838110156109fe5781810151838201526020016109e6565b83811115610a0d576000848401525b50505050565b600281046001821680610a2757607f821691505b60208210811415610a4857634e487b7160e01b600052602260045260246000fd5b50919050565b6000600019821415610a6257610a62610a69565b5060010190565b634e487b7160e01b600052601160045260246000fd5b634e487b7160e01b600052604160045260246000fdfea2646970667358221220523609c53a65ad41f633f7aff6988d3c7f45a1887011d6b7aed2e38986d1dac964736f6c63430008000033",
  "immutableReferences": {},
  "source": "// SPDX-License-Identifier: MIT\npragma solidity ^0.8.0;\n\nimport \"@chainlink/contracts/src/v0.8/interfaces/AggregatorV3Interface.sol\";\n\ncontract CryptoPredictionMarket {\n    struct Market {\n        string question;\n        string cryptoSymbol;\n        uint256 deadline;\n        address creator;\n        bool resolved;\n        uint256 betAmount;\n        bool outcome; // True if the condition is met, false otherwise\n        mapping(address => uint256) bets;\n        AggregatorV3Interface priceFeed; // Reference to the price feed\n    }\n\n    mapping(uint256 => Market) public markets;\n    uint256 public marketCount;\n\n    mapping(string => address) public priceFeeds; // Mapping from crypto symbols to Chainlink price feeds\n\n    // Event emitted when a market is created\n    event MarketCreated(\n        uint256 marketId,\n        string question,\n        string cryptoSymbol,\n        uint256 deadline,\n        address creator,\n        uint256 betAmount\n    );\n\n    constructor() {\n        // Initialize the price feed mappings\n        priceFeeds[\"BTC\"] = 0xF4030086522a5bEEa4988F8cA5B36dbC97BeE88c; // BTC/USD price feed address\n        priceFeeds[\"ETH\"] = 0x5f4eC3Df9cbd43714FE2740f5E3616155c5b8419; // ETH/USD price feed address\n    }\n\n    function createMarket(string memory question, string memory cryptoSymbol, uint256 deadline) public payable {\n        require(priceFeeds[cryptoSymbol] != address(0), \"Unsupported cryptocurrency\");\n\n        marketCount++;\n        Market storage newMarket = markets[marketCount];\n        newMarket.question = question;\n        newMarket.cryptoSymbol = cryptoSymbol;\n        newMarket.deadline = deadline;\n        newMarket.creator = msg.sender;\n        newMarket.betAmount = msg.value;\n        newMarket.resolved = false;\n        newMarket.priceFeed = AggregatorV3Interface(priceFeeds[cryptoSymbol]);\n\n        emit MarketCreated(marketCount, question, cryptoSymbol, deadline, msg.sender, msg.value);\n    }\n\n    function resolveMarket(uint256 marketId, uint256 targetPrice) public {\n        Market storage market = markets[marketId];\n        require(block.timestamp >= market.deadline, \"Market resolution time has not been reached\");\n        require(!market.resolved, \"Market already resolved\");\n\n        // Fetch price data from the Chainlink oracle\n        (,int price,,,) = market.priceFeed.latestRoundData();\n        uint256 currentPrice = uint256(price);\n\n        if (currentPrice >= targetPrice * 10 ** 8) { // Adjusting for decimals\n            market.outcome = true;\n            payable(market.creator).transfer(market.betAmount * 2); // Winner takes all\n        } else {\n            market.outcome = false;\n        }\n\n        market.resolved = true;\n    }\n}\n",
  "sourcePath": "/Users/asolanki/Downloads/2024 Projects/De-AI-Prediction-Market/contracts/PredictionMarket.sol",
  "compiler": {
    "name": "solc",
    "version": "0.8.0+commit.c7dfd78e.Emscripten.clang"
  },
  "schemaVersion": "3.4.16",
  "updatedAt": "2024-09-02T22:47:04.083Z",
  "networkType": "ethereum",
  "devdoc": {
    "kind": "dev",
    "methods": {},
    "version": 1
  },
  "userdoc": {
    "kind": "user",
    "methods": {},
    "version": 1
  }
}